:020000040800F2
:1000000000100020B1310008713100087331000880
:1000100000000000000000000000000000000000E0
:100020000000000000000000000000007531000822
:10003000000000000000000077310008793100085E
:1000400001320008000000000132000801320008FF
:1000500001320008013200080132000801320008B4
:1000600000000000013200080132000801320008DF
:1000700001320008013200080132000800000000CF
:10008000013200080000000000000000813100087B
:100090000000000091310008013200080132000820
:1000A00000000000013200080000000001320008DA
:1000B0000000000000000000000000000000000040
:1000C00010B5064C2378002B07D1054B002B02D02E
:1000D000044800E000BF0123237010BD0C00002085
:1000E000000000008C330008084B10B5002B03D033
:1000F0000749084800E000BF07480368002B00D10B
:1001000010BD064B002BFBD09847F9E7000000001C
:10011000100000208C3300080C00002000000000BC
:10012000002243088B4274D303098B425FD3030A36
:100130008B4244D3030B8B4228D3030C8B420DD349
:10014000FF22090212BA030C8B4202D312120902D7
:1001500065D0030B8B4219D300E0090AC30B8B4215
:1001600001D3CB03C01A5241830B8B4201D38B03C3
:10017000C01A5241430B8B4201D34B03C01A524168
:10018000030B8B4201D30B03C01A5241C30A8B42AB
:1001900001D3CB02C01A5241830A8B4201D38B0296
:1001A000C01A5241430A8B4201D34B02C01A52413A
:1001B000030A8B4201D30B02C01A5241CDD2C309AC
:1001C0008B4201D3CB01C01A524183098B4201D328
:1001D0008B01C01A524143098B4201D34B01C01A13
:1001E000524103098B4201D30B01C01A5241C3088B
:1001F0008B4201D3CB00C01A524183088B4201D3FA
:100200008B00C01A524143088B4201D34B00C01AE5
:100210005241411A00D20146524110467047FFE751
:1002200001B5002000F006F802BDC0460029F7D055
:1002300076E770477047C0468446101C62468C467D
:10024000191C634600E0C0461FB500F0AFFE002851
:1002500001D40021C8421FBD10B500F009FE404284
:10026000013010BD10B500F0A1FE002801DB002018
:1002700010BD012010BDC04610B500F097FE00284B
:1002800001DD002010BD012010BDC04610B500F0FA
:1002900029FE002801DC002010BD012010BDC04651
:1002A00010B500F01FFE002801DA002010BD01206B
:1002B00010BDC046F0B557464E46DE464546E0B551
:1002C00044024300C60F83B00F1C640A1B0EB246E3
:1002D00053D0FF2B27D08022E400D20414437F2286
:1002E000524290469844002399469B467D027800EE
:1002F000FB0F6D0A000E009324D0FF2846D0802308
:100300000021ED00DB041D437F384746381A4F4675
:100310000F43BF00B9463300009A874F53404A4607
:10032000BA5801939746002C4ED108239946F733CB
:100330009846FD3B9B467D027800FB0F6D0A000E40
:100340000093DAD1002D26D1002001213300009A3C
:100350007A4F53404246101A4A460A439200BA580E
:100360001D009746009B2C009A468B465B46022B4D
:1003700031D15346FF21002438E0002C17D104234B
:1003800099460023984601339B46AFE7FF20002D96
:100390000BD10221DAE7280000F046FF431F9D4001
:1003A00076235B42181A0021AFE70321ADE7200056
:1003B00000F03AFF431F9C4076235B421B1A98468D
:1003C000002399469B4691E70C239946F3339846C0
:1003D000FC3B9B468AE7032B00D1A5E05546012B49
:1003E00000D081E00123002100242B406402C905D4
:1003F000600ADB070843184303B03CBC90469946AB
:10040000A246AB46F0BD80240023E403FF21EDE7C4
:10041000FF210024EAE70123591A1B2966DD019A0E
:10042000134000210024E1E78023DB031C4238D085
:100430001D4251D01C436402640A3300FF21D5E7FA
:1004400063016C01A3423BD21B2600210138012528
:100450001F0049005B00002F01DB9C4201D81B1BE1
:100460002943013E002EF3D11C00631E9C410C4326
:1004700001007F310029CEDD630704D00F23234024
:10048000042B00D00434230103D501002C4B803110
:100490001C40FE290DDD0123019AFF211340002499
:1004A000A4E78023DB031C436402640A3300FF21BA
:1004B0009CE70123019AA401640AC9B2134095E79D
:1004C0001B1B1A260121C2E7009B8B469A4600247B
:1004D0004CE76302E5D500258024E4032C43640245
:1004E000640A009BFF2181E70195C1E723002020DA
:1004F000CB40411A8C40611E8C411C43630704D0E1
:100500000F232340042B00D00434630105D50123BD
:10051000019A01211340002468E70123019AA401F4
:10052000640A1340002161E78023DB031C4364025B
:10053000640A5346FF2159E7DC3300081C340008E5
:10054000FFFFFFF7F8B557464E464546DE46E0B595
:100550004702460088467F0A360EC40F002E47D059
:10056000FF2E24D0FB008027FF041F430023994661
:100570009A467F3E43465D025800DB0F6D0A000E2F
:10058000984643D0FF283BD0EB0080250022ED04A5
:100590001D437F383618731C41469B464B466140CD
:1005A00013430F2B64D875489B00C3589F46002FF8
:1005B00042D108239946063BFF269A46DAE7414690
:1005C000022A28D0032A00D1CEE0012A00D0ACE0D4
:1005D000114000200022CCB24002D205400AE407BC
:1005E000104320433CBC90469946A246AB46F8BD1A
:1005F000002F15D104239946033B00269A46B9E7FC
:10060000FF200222002DC5D00322C3E7002D19D1FF
:1006100000200122BEE70124FF220C400020DBE77E
:10062000380000F001FE7626431F9F4000237642EB
:10063000361A99469A469DE70C239946093BFF26B0
:100640009A4697E7280000F0EFFD431F9D40762370
:100650005B42181A00229DE780200024C003FF227D
:10066000BAE73D005246ABE73D0021005246A7E7FE
:100670003B0C9C462A04120C2B0C14006046654669
:100680003F043F0C7C4342435D437B43270C9B1854
:10069000FF18BA4203D980235B029C4665442404B8
:1006A0003A04240C121993015C1EA3413F0C920ED4
:1006B0007D191A43AD0115432B0104D501235E4674
:1006C0006A081D40154332007F32002A25DD6B0782
:1006D00004D00F232B40042B00D004352B0103D56D
:1006E0003200274B80321D40FE2A94DC0124A801F1
:1006F000400AD2B20C406FE78020C003074207D007
:10070000054205D128434002400A4446FF2263E7E0
:1007100038434002400AFF225EE70124A31A1B2B44
:1007200005DD0C400022002056E75E46CBE72A009C
:100730002020DA40C31A9D402B005D1EAB411343BD
:100740005A0704D00F221A40042A00D004335A0159
:1007500004D5012401220C4000203DE701249B0127
:10076000580A0C40002237E780200124C0032843A8
:100770004002400A0C40FF222EE7C0465C340008CD
:10078000FFFFFFF741024300C20F490A1B0E002082
:100790007E2B0DDD9D2B0CDC802000040143952B6E
:1007A0000ADC9620C31AD9404842002A00D108002A
:1007B0007047034BD018FBE7963B9940F4E7C046DF
:1007C000FFFFFF7F10B5041E27D000F02DFD9E23F4
:1007D0001B1A962B0ADC9622D21A94406402640AF1
:1007E000DBB26402DB05600A184310BD992B17DCED
:1007F0009922D21A002A27DD94402200134C14407B
:10080000510704D00F210A40042A00D004346201A9
:1008100012D4A401640ADBB2E3E700230024E0E77A
:10082000B9222100D21A91400A00511E8A410521A5
:10083000091ACC401443DBE7044B1C409F23A4015E
:100840001B1A640ADBB2CCE72200D7E7FFFFFFFBED
:10085000F8B54546DE4657464E460C03E0B54E0019
:10086000C90F88460D00610A440F0C43C7001903E5
:100870005800DB0F9B464B0A510F0B43760D400D82
:100880001900D200D84500D1AEE0351A002D00DCA9
:10089000F6E000280FD1134300D1DBE06B1E002BE4
:1008A00000D037E1BA1A9742BF41641A7F42E41B75
:1008B0000126170024E0C64B9E424DD080231B0426
:1008C0001943382D00DD07E11F2D00DD38E1202020
:1008D000431B9A460B0050468340994613004846F6
:1008E000EB401843030050468240501E8241E940CD
:1008F0001A43BA1A611A9742A441170064420C1BAA
:10090000230262D56402650A002D00D1DFE02800D1
:1009100000F08AFC0300083B1F2B00DDD2E0202200
:100920003C00D21A9D40D4409F4025439E4200DDAA
:10093000C4E09E1B731C1F2B00DDF1E02022380059
:100940002900D21AD840914097402C000143781ECC
:100950008741DC4000260F437B0709D00F233B4033
:10096000042B05D03B1DBB42BF417F42E4191F0051
:1009700023022CD5964B01369E4200D19AE0454683
:10098000944BFF081C406007760564020743240B64
:10099000760D00212403230B0C0D8F4A24051C43E4
:1009A0001440330523435B00ED075B082B433800FD
:1009B00019003CBC90469946A246AB46F8BD644639
:1009C000044300D111E2040067467B07C6D14546C7
:1009D0006007FF080743E4087D4B9E4230D02403A4
:1009E0007605240B760DD4E7331A9A46002B78DD72
:1009F000002831D076488642AED0802000040143E2
:100A00005346382B00DCE9E00A43511E8A4100219D
:100A1000D219BA42BF4109197C4217000C192302AE
:100A2000D3D56B4B01369E4200D13AE10120694B90
:100A30001C407B0807401F43E007074364088BE71F
:100A400023003B4300D1CBE1802212031443240353
:100A5000240B9EE72E007FE70800104300D1B4E08E
:100A6000581E002800D0DEE0BA18BA429B41641834
:100A70005B42E418170001262302A6D50226D5E71B
:100A8000002D6ED1701C4005400D012800DCF9E0FE
:100A9000B81A844687428041E51A40422D1A28023E
:100AA00000D489E0D71BBA4292411C1B5242A51ABE
:100AB000D84629E74546002400276AE7454CF61A40
:100AC0002C4049E73D002838854000272EE73800B4
:100AD00000F0AAFB20301DE70A43511E8A41002185
:100AE00007E7002B00D0F3E0701C43055B0D012BE2
:100AF00000DCADE0364B984200D1D1E0BA18BA42E2
:100B0000BF4164187F42E419E7075208174364089D
:100B1000060021E72E48854200D193E01D00D0E673
:100B200029001F3EF140202B00D18DE04022D31A36
:100B30009D402F437D1EAF4100240F43002644E714
:100B40002B000800203BD8400300202D00D17DE081
:100B50004020451BA9400A43511E8A4100211A43E7
:100B6000C7E6002E50D01A4EB04257D080266B42B6
:100B70009946360434434B46382B00DDD6E01F2B14
:100B800000DD35E12026F51A2600AE40B2463E00D3
:100B9000DE40AC46350056462E436546AF407D1ECE
:100BA000AF41DC403743D71BBA4292410C1B524243
:100BB000A41A0600D846A3E6644667462C4300D034
:100BC000A2E600250026002706E71E00C4E6C04670
:100BD000FF070000FFFF7FFFFFFF0F801F2B63DC7D
:100BE0002020C31A080098409C46834653461000B4
:100BF000D84003005846184363469A40531E9A4112
:100C000053460243D94003E726003E4306D0EB4358
:100C10009946002BC7D0944EB042ACD10C001700BF
:100C20000600D84698E6904B9A450BD08246E7E6F8
:100C3000002800D09EE01800104300D1E9E01C001D
:100C40001700D846884E87E6002572E7002182E724
:100C500023003B43002E00D0ABE0002B00D1E7E0A7
:100C60000B00134300D177E6BA18BA42BF416418AB
:100C70007F42E419230200D4F2E07C4B17001C40B1
:100C8000060069E620003843002ED1D100285BD150
:100C90001C00144300D1A8E01C001700D8465BE6F6
:100CA00006000024002797E650460B002038C3407A
:100CB00099465346202B00D195E0402350461B1AFD
:100CC00099400A43511E8A414B4600211A439FE630
:100CD000002E30D126003E4367D0DB439A46002BDE
:100CE0001CD0614EB04260D05346382B00DD96E0F8
:100CF0001F2B00DD9FE02026F31A26009E409C4615
:100D0000B34653463E00DE4033005E461E43634614
:100D10009F407B1E9F415346DC403743BF1897429C
:100D2000924164185242A418060078E627437C1EBC
:100D3000A741002437E74C4EB04236D080265B42B4
:100D400036049A463443CFE71800104300D103E637
:100D5000B81A84466745AD41E01A6D42401B050252
:100D600000D42CE6D71BBA4292411C1B5242A41A53
:100D7000D846F1E51800104300D163E7F80867078B
:100D800007438020E4080003044208D0DD08054240
:100D900005D1D208590711430F002C00D8467B0F0C
:100DA000E4001C43FF00304ED6E50C00170006009F
:100DB000D2E5002B38D00B00134300D142E7F808EE
:100DC000670707438020E40800030442E7D0CB080C
:100DD0000342E4D1D208490711430F001C00DEE7AB
:100DE00000270024D5E500216BE700250027F3E567
:100DF0004E462500203EF5404B462E00202B2DD0A0
:100E00004025ED1AAC4027437C1EA7410024374300
:100E1000C9E6802400252403134E0027DCE5274380
:100E20007C1EA741002479E70C0017000E4E93E5C5
:100E30000C00170090E556462300203EF3409946EB
:100E40005346202B0ED0402356469B1B9C402743E5
:100E50007C1EA7414B4600241F435FE70024D2E7D6
:100E60001700B2E50024F2E7FF070000FFFF7FFF55
:100E7000F0B54F464646D6465C00C0B51F03DB0FB3
:100E80009A46174B0E034D0084468046360B6D0D77
:100E9000C90F91463F0B640D01209D4208D09C4232
:100EA00001D0A5420BD01CBC90469946A246F0BD8D
:100EB00063463343F7D1AC42F5D13A43F3D1012035
:100EC000BE42F0D1C845EED1514507D0002DEAD140
:100ED00063461E433000461EB041E4E70020E2E7CF
:100EE000FF070000F0B54546DE4657464E46E0B5E2
:100EF0001F033D0B2C4F0E034C00AB465D00844698
:100F0000360B640DC90F90466D0DDB0FBC422AD025
:100F1000254FBD422DD0002C0FD130430700814614
:100F200078427841C0B2002D17D15F463A4314D1C0
:100F30004B460020002B0AD006E0002D02D1584677
:100F4000024301D0994218D04842012108433CBCD9
:100F500090469946A246AB46F0BD0028F2D001204B
:100F6000013B1843F3E737000743D1D0022040424A
:100F7000EDE75F461743CED0F8E7AC42E4DC03DA96
:100F8000481E01210843E2E75E45DDD806D0002077
:100F90005E45DCD20123481E1843D8E7C445D3D8A8
:100FA0000020C445F6D3D2E7FF070000F0B54E4657
:100FB0004546DE4657465C00E0B51F03DB0F994609
:100FC0002A4B0E034D00C90F8446360B6D0D8B4620
:100FD00090463F0B640D9D4220D0244B9C4222D072
:100FE000002D12D1304343424341DBB2002C1FD0CD
:100FF000002B0CD04B460120013B034318003CBCA6
:1010000090469946A246AB46F0BD002C16D0CB4583
:1010100017D05B46594201230B43EFE7310002230F
:101020000143EBD1D9E7390002231143E6D1D7E7D9
:101030003A43DDD100230028E0D0EAE73A43E6D185
:10104000E7E7A542E5DC05DBBE42E2D807D0002396
:10105000BE42D3D25946012301390B43CEE7C445E2
:10106000D7D80023C445F5D3C8E7C046FF07000022
:101070004100090E4B1C70B5DBB24602750AC40F65
:10108000012B14DDE0239B006D07360BCB180021EC
:101090000A0D280012051C4D32435B052A405B08EF
:1010A00013435B00E4075B082343190070BD00296C
:1010B00014D1002D1ED0280000F0B6F80A281CDC40
:1010C0000B232A001B1ADA40030015339D400F4BF7
:1010D00012031B1A5B05160B5B0DD8E7002D06D01B
:1010E000320B802636036D071643094BCFE7084BBA
:1010F0000026CCE700230026C9E703002A000B3BAB
:101100009A400025E3E7C046FFFF0F8089030000F7
:10111000FF070000F0B54C00640D0B03621C450F87
:101120005B0A52052B43C90FC500520D012A28DD69
:101130003A4AA618FE2E1BDC002E3EDD800102007E
:10114000501E82416D0F2A43DB0013435A0704D01F
:101150000F221A40042A00D004338022D2041A40FD
:101160005AD00136FF2E03D09B015B0AF4B201E096
:10117000FF2400235802E405400AC907204308431E
:10118000F0BD002C07D01D43F2D08020DB0080048E
:101190000343FF26DAE72B4303D00523DB08FF2CAC
:1011A00003D05B025B0AE4B2E4E7002B32D080207C
:1011B000C00303435B025B0ADCE73200173214DB37
:1011C00080221E2712041343BF1B1F2F0FDC144A5B
:1011D000944664442A00A5402E00A340751EAE41EB
:1011E000FA40334313430026B0E70024D5E7022238
:1011F0005242961B1A00F240202F09D0094884461B
:101200006444A3402B435D1EAB41002613439DE77E
:101210000023F7E70023ADE73400BFE780FCFFFFC2
:1012200082FCFFFFA2FCFFFF1C2101231B0498424C
:1012300001D3000C10391B0A984201D3000A083967
:101240001B09984201D30009043902A2105C40181E
:101250007047C046040302020101010100000000C2
:101260000000000010B504000E4B1978FA20800031
:10127000FEF756FF01000C4B1868FEF751FF00F017
:101280006BFB00280CD1032C01D9012009E00022BE
:101290002100013800F024FB024B5C60002000E0DC
:1012A000012010BD000000200800002010B5064AF3
:1012B000136810210B4313600020FFF7D3FF01F0E8
:1012C000A3FE002010BDC04600200240034A116862
:1012D000034B1B785B1813607047C0462C0000203E
:1012E00000000020014B18687047C0462C00002009
:1012F00070B50400FFF7F6FF0500631C02D0044B35
:101300001B78E418FFF7EEFF401B8442FAD870BD4B
:101310000000002070B5040003689A68520721D5C8
:101320009A68520706D59A68920703D49A681021E2
:101330000A439A60FFF7D6FF050023689B685B07A6
:101340000ED5FFF7CFFF401B0228F6D9A36B102262
:101350001343A363E36B0F3A1343E363012002E0FB
:10136000002000E0002070BD70B5040002689168A4
:1013700003230B40012B11D00023002B39D091689F
:1013800005230B40012B15D0A36B10221343A3633D
:10139000E36B0F3A1343E363012070BD1368DB076F
:1013A00004D4D3681B0403D40023E6E70123E4E755
:1013B0000123E2E7936802210B4393602368032231
:1013C0001A60FFF78FFF050023689B68DB070ED5C7
:1013D000FFF788FF401B0228F6D9A36B10221343A6
:1013E000A363E36B0F3A1343E3630120D5E70020C7
:1013F000D3E70020D1E7000030B583B0040000231C
:1014000001930268916803330B40012B11D0002334
:10141000002B42D19168224B194216D193680121C9
:101420000B4393601F4B18681F49FEF779FE01902C
:1014300018E01368DB0704D4D3681B0403D400232B
:10144000E6E70123E4E70123E2E7A36B102213435D
:10145000A363E36B0F3A1343E36301201EE0019B98
:10146000013B0193019B002BF9D1FFF73BFF0500E6
:1014700023681B68DB070ED4FFF734FF401B0228EC
:10148000F6D9A36B10221343A363E36B0F3A134304
:10149000E363012002E0002000E0002003B030BD43
:1014A000170000800800002040420F0070B5041EA5
:1014B00000D1BAE0836B002B00D181E0A36BDB0687
:1014C00000D5ACE02268936804210B4000D0A6E070
:1014D000A16B574801400630FF300143A16390687B
:1014E00003210140012971D0002100290CD1D168CC
:1014F00018208143A0680143D16021680A699200E5
:101500009208606802430A612168CA68494802403B
:10151000CA60227E9203617EC9030A43A07E410312
:101520000A43A16A01295DD0802149010A43E1688B
:101530000A432169022957D013432422A25C520096
:101540001343E27E012A51D0E269C221FF318A426F
:1015500002D0216A0A4313432168CA681A43CA6049
:10156000E26A802149058A420DD0012A0BD0022A65
:1015700009D0032A07D0042A05D0052A03D0062A59
:1015800001D0072A0AD120684169072291434161AD
:1015900020684169E56A2A400A4342612268D268AC
:1015A00025490A40934230D0A36B12229343023A5A
:1015B0001343A363E36B0F3A1343E363012033E068
:1015C000C3633422835401F037FD77E71168C907FC
:1015D00004D4D168090403D4002186E7012184E7FB
:1015E000012182E71900A1E70423A5E7002803D120
:1015F000802252021343A7E7A26B20210A43A26371
:10160000E26B1F390A43E2639EE70023E363A36BA7
:1016100003229343023A1343A363002004E0A36B25
:1016200010221343A363012070BD0120FCE7C046D4
:10163000FDFEFFFF1902FEFFE7FF3F8310B5040028
:1016400003689B685B0701D5022010BD3423C35C8F
:10165000012B1FD001223423C254437E012B17D00B
:10166000FFF7CAFE0028F0D1A36B0B4A1A40802373
:101670005B001343A3630023E3633422A354236872
:10168000183A1A602268936804210B439360DCE7E0
:101690000020E7E70220D8E7FEF0FFFF10B50400C6
:1016A0003423C35C012B01D1022010BD012234235D
:1016B000C254FFF72FFE002803D000223423E25447
:1016C000F3E72000FFF750FE0028F6D1A36B034A92
:1016D00013400432FF321343A363EEE7FEFEFFFF25
:1016E000F8B504000D004369082B26D00368DB68B9
:1016F000DB0719D40C26FFF7F5FD070023681A68ED
:1017000032421CD16B1CF9D0002D04D0FFF7EAFD4A
:10171000C01B8542F2D2A36B04221343A3630022B1
:101720003423E25403202FE0836B2022134383638E
:1017300000223423C254012026E00826DBE7A16BF7
:10174000802292000A43A263D968C022120111428A
:1017500013D1A27E002A10D11A6812070DD59A68FB
:10176000520712D45A680C218A435A60A36B0C4A60
:1017700013400432FF321343A363237E002B0DD1A9
:1017800023680C221A600020F8BDA36B20221343AB
:10179000A363E36B1F3A1343E363EEE70020F3E731
:1017A000FEFEFFFF0368186C7047000030B583B081
:1017B0000400002301933433C35C012B00D181E08A
:1017C00001223423C25403689A68520770D43E4AF7
:1017D0004868904253D09A6A01200D68A84002439D
:1017E0009A62E36A8022520593421ED0012B1CD0DC
:1017F000022B1AD0032B18D0042B16D0052B14D093
:10180000062B12D0072B10D0226850690723034003
:101810008868984209D0506907239843506120682E
:1018200042698D682B40134343610B681A00103ADC
:10183000012A01D9002040E0244A1268102B09D067
:101840008023DB031343214A13600B68102B04D061
:10185000002032E080231B04F4E71D4B18681D496B
:10186000FEF75EFC830018184300019302E0019B21
:10187000013B0193019B002BF9D100201DE09A6AE6
:1018800001200D68A84082439A620B681A00103A42
:10189000012A01D9002010E00C4A1268102B05D053
:1018A0000D4B1340094A1360002006E00B4BF8E78C
:1018B000836B202213438363012000223423E254EC
:1018C00003B030BD0220FBE70110000008270140F3
:1018D0000800002040420F00FFFFBFFFFFFF7FFF17
:1018E00070B5002811DB8208134DC03292005459A4
:1018F00003231840C000FC331E008640B443890116
:101900000B4083402343535170BDC0B20F220240AD
:10191000083A920806329200084BD3185D680324F7
:101920002040C000FF2214008440A54389011140DB
:10193000814029435960E7E700E100E000ED00E065
:10194000002805DB1F2318401E3B8340014A13601B
:101950007047C04600E100E001380A4B98420FD8BA
:10196000094A50600948036A1B021B0AC021090684
:101970000B4303620023936007331360002070471A
:101980000120FCE7FFFFFF0010E000E000ED00E0B9
:10199000F0B5C64600B582B000237EE0DF08083708
:1019A000BF003E5807251D40AD000F24AC40A643A4
:1019B0000C69AC40250035433D507EE085686446A7
:1019C0002540CE68BE403543856045682C004546BD
:1019D000AC434D682E09012535409D402C434460A1
:1019E000C46865462C408D68BD402C43C4604C687B
:1019F000E40051D5434DAE6901242643AE61AD6983
:101A00002C400194019C9C08A51CAD003E4EAE5993
:101A100003251D40AD000F27AF40BE439027FF05B3
:101A2000B84265D0394FB84264D0394FB84263D01C
:101A3000384FB8425AD00527AF403D0035430234F5
:101A4000A400314EA551344C2568D44326002E40C5
:101A50004F68FF0301D515432E002F4D2E606D6892
:101A60002E0026404F68BF0301D515432E002A4D96
:101A70006E60AD682E0026404F68FF0201D5154309
:101A80002E00254DAE60ED682C404E68B60201D5A3
:101A90002A431400204AD46001330A681400DC4051
:101AA0002CD001249C40A0462240F5D04D68022D48
:101AB00000D173E7122D00D170E706685F0003259F
:101AC0002C00BC40E443A44626404C682540BD4061
:101AD000354305604D686E1E012E00D86EE7112D4E
:101AE00000D16BE7122D00D07AE767E70327A3E761
:101AF0000027A1E701279FE702279DE702B004BC6A
:101B00009046F0BD00100240000001400004004873
:101B100000080048000C00480004014003690B4223
:101B200001D1002070470120FCE7002A01D1816229
:101B300070478161FCE74369194201D181617047B7
:101B400009048161FBE7000070B582B0041E00D17A
:101B500031E20368DB0736D5C14B5A680C231340CA
:101B6000042B28D0BE4B5A680C231340082B1ED0E0
:101B70006368012B4BD0002B50D1B94B1A68B9497F
:101B80000A401A601A68B8490A401A606368002B54
:101B90005CD0FFF7A7FB0500B14B1B689B0312D479
:101BA000FFF7A0FB401B6428F6D9032008E2AC4BEA
:101BB0005B68DB03DCD5AA4B1B689B0303D563681A
:101BC000002B00D1F9E123689B0762D5A44B5B6829
:101BD0000C221A424CD0A24B5A680C231340082BFB
:101BE00042D0E368002B76D09D4A136801210B4355
:101BF0001360FFF777FB0500994B1B689B0761D4C7
:101C0000FFF770FB401B0228F6D90320D8E1944A65
:101C1000116880235B020B431360B7E7052B09D0E3
:101C20008F4B1A688F490A401A601A688E490A4019
:101C30001A60ABE78A4B19688022D2020A431A6005
:101C40001968802252020A431A609FE7FFF74AFB95
:101C50000500834B1B689B03B5D5FFF743FB401B77
:101C60006428F6D90320ABE17D4B5B68DB03B8D475
:101C70007B4B1B689B0704D5E368012B01D0012037
:101C80009EE177490B68F82293432269D2001343FF
:101C90000B6023681B0744D5E369002B2ED0704AE4
:101CA000536A01210B435362FFF71CFB05006C4B89
:101CB0005B6A9B0735D4FFF715FB401B0228F6D95A
:101CC00003207DE166490B68F82293432269D20024
:101CD00013430B60DDE7624A136801218B431360F5
:101CE000FFF700FB05005E4B1B689B07D1D5FFF794
:101CF000F9FA401B0228F6D9032061E1584A536AD9
:101D000001218B435362FFF7EDFA0500544B5B6AE8
:101D10009B0706D5FFF7E6FA401B0228F6D90320F9
:101D20004EE123685B0775D54D4BDB69DB002ED494
:101D30004B4AD169802040050143D161D3690340FA
:101D40000193019B0125494B1B68DB0521D5A36845
:101D5000012B32D0002B36D1414B1A6A01218A4324
:101D60001A621A6A03318A431A62A368002B40D0B0
:101D7000FFF7B8FA06003A4B1B6A9B0748D4FFF7F7
:101D8000B1FA801B3A4B9842F5D9032018E100259F
:101D9000D9E7364A116880235B000B431360FFF7D5
:101DA000A1FA0600314B1B68DB05D0D4FFF79AFA85
:101DB000801B6428F6D9032002E1294A136A012115
:101DC0000B431362D1E7052B09D0254B1A6A012179
:101DD0008A431A621A6A03318A431A62C5E7204BA2
:101DE0001A6A04210A431A621A6A03390A431A62F8
:101DF000BBE7FFF777FA0600194B1B6A9B0707D56D
:101E0000FFF770FA801B1A4B9842F5D90320D7E0F0
:101E1000012D1ED02368DB065AD56369012B2BD018
:101E2000053349D00E4B5A6B04210A435A635A6B4F
:101E300003398A435A63FFF755FA0500084B5B6B79
:101E40009B0745D5FFF74EFA401B0228F6D9032021
:101E5000B6E0034AD36907490B40D361DAE7C046CD
:101E600000100240FFFFFEFFFFFFFBFF007000407D
:101E700088130000FFFFFFEF544B5A6B04210A4305
:101E80005A635A6B03390A435A63FFF72BFA05006A
:101E90004E4B5B6B9B0706D4FFF724FA401B0228CE
:101EA000F6D903208CE049494B6BF8229343A26991
:101EB000D20013434B630BE0444A536B04218B4322
:101EC0005363536BF4318B43A169C9000B435363D4
:101ED000236A002B73D03D4A51680C220A40082A1D
:101EE0004DD0022B12D0394A136839490B40136088
:101EF000FFF7F8F90400354B1B689B013DD5FFF750
:101F0000F1F9001B0228F6D9032059E02F4A136883
:101F10002F490B401360FFF7E5F905002B4B1B68B9
:101F20009B0106D5FFF7DEF9401B0228F6D90320F6
:101F300046E0264BDA6A0F218A43E16A0A43DA62F5
:101F40005A6824490A40A16A606A01430A435A60F8
:101F50001968802252040A431A60FFF7C3F904008B
:101F60001A4B1B689B0106D4FFF7BCF9001B022823
:101F7000F6D9032024E0002022E0002020E0012BFD
:101F800020D0124B5A68D96A80235B021340606AE2
:101F9000834201D0012013E00F230B40E16A8B4202
:101FA00001D001200CE0F0239B031A40A36A9A425F
:101FB0000AD0012004E0012002E0012000E000201E
:101FC00002B070BD0120FBE70020F9E700100240DD
:101FD000FFFFFFFEFFFFC2FF30B589B004AA154B1B
:101FE000180032C832C2110002680A606A46103313
:101FF00013CB13C21B6813600F4B5A680C2313409A
:10200000082B13D1910C0733194004A8445C0A49EA
:10201000C96A0B406946C95CD30302D407486043D0
:1020200005E00748FEF77CF8604300E0044809B08B
:1020300030BDC046A43300080010024000093D0036
:1020400000127A0070B504000D00002800D181E074
:10205000424B1A68012313408B420BD23F490B6855
:10206000012293432B430B600B681A40954201D029
:1020700001206EE023689A070ED55B0705D5384A24
:102080005168E023DB000B435360354A5368F0216D
:102090008B43A1680B4353602368DB072DD563682E
:1020A000012B1ED0022B22D02D4A1268920753D545
:1020B0002B494A680320824313434B60FFF712F910
:1020C0000600274B5B680C221A4063689B009A420B
:1020D00013D0FFF707F9801B224B9842F1D9032058
:1020E00037E01F4A12689203E2D4012031E01C4A13
:1020F00012689201DCD401202BE0184B1A680123EE
:1021000013409D420BD215490B68012293432B4388
:102110000B600B681A40954201D0012019E023683A
:102120005B0706D50E4A53680F490B40E1680B4325
:102130005360FFF751FF0A4B5A6812090F231340EF
:102140000A4AD35CD8400A4B18600020FFF78AF88F
:10215000002070BD0120FCE70120FAE700200240CA
:102160000010024088130000FFF8FFFFC43300088E
:1021700008000020014B18687047C0460800002086
:1021800010B5FFF7F7FF044B5A68120A07231340F4
:10219000024AD35CD84010BD00100240D43300087E
:1021A00070B582B004000368DB0335D53C4BDB69B6
:1021B000DB0048D43A4AD169802040050143D1610F
:1021C000D36903400193019B0125364B1B68DB0556
:1021D0003BD5334B1B6AC0229200134013D0616879
:1021E0000A4093420FD02E4B186A2F4A02401E6AB3
:1021F0008021490231431962196A2C4E314019621B
:102200001A62C30735D4264A136A27490B4061680E
:102210000B431362012D3BD02368DB0706D5204A10
:10222000136B03218B43A1680B43136323689B0645
:1022300033D51B4A136B10218B43E1680B431363A7
:10224000002002B070BD0025BFE7164A1168802348
:102250005B000B431360FFF745F80600114B1B684A
:10226000DB05B6D4FFF73EF8801B6428F6D90320BF
:10227000E7E7FFF737F80600094B1B6A9B07C2D454
:10228000FFF730F8801B0A4B9842F5D90320D8E7B6
:10229000D36908490B40D361BEE70020D1E7C046AF
:1022A0000010024000700040FFFCFFFFFFFFFEFF38
:1022B00088130000FFFFFFEF02223D23C254026893
:1022C0009168363B0B40062B03D0136801210B436A
:1022D000136001223D23C2540020704702223D2397
:1022E000C2540368196A084A114207D1196A074A99
:1022F000114203D11A6801218A431A6001223D2349
:10230000C25400207047C046111100004404000070
:102310000268D36801210B43D360026891680723E8
:102320000B40062B03D0136801210B4313600020E0
:10233000704700000268D36801218B43D3600368B3
:10234000196A064A114207D1196A054A114203D196
:102350001A6801218A431A60002070471111000099
:10236000440400007047704770477047704710B5CD
:10237000040003681A6992070FD5DA6892070CD532
:10238000032252421A610123037703689B699B076A
:1023900063D0FFF7E9FF0023237723681A69520708
:1023A00012D5DA6852070FD5052252421A6102236C
:1023B000237723689A69C0239B001A4253D02000D8
:1023C000FFF7D2FF0023237723681A69120710D57D
:1023D000DA6812070DD5092252421A6104232377C5
:1023E0002368DB699B0745D02000FFF7BDFF002372
:1023F000237723681A69D20612D5DA68D2060FD578
:10240000112252421A61082323772368DA69C02314
:102410009B001A4235D02000FFF7A6FF0023237748
:1024200023681A69D20702D5DA68D20730D4236844
:102430001A69120602D5DA68120630D423681A69BE
:10244000520602D5DA68520630D423681A69920619
:1024500002D5DA68920630D410BDFFF784FF200061
:10246000FFF783FF97E72000FFF77DFF2000FFF7CE
:102470007CFFA7E72000FFF776FF2000FFF775FF3E
:10248000B5E72000FFF76FFF2000FFF76EFFC5E7FD
:10249000022252421A612000FFF764FFC7E781223F
:1024A00052421A61200000F06EF8C7E74122524202
:1024B0001A612000FFF75AFFC7E7212252421A6132
:1024C000200000F05FF8C7E703681B4A90422AD05B
:1024D0001A4A904227D0184A90420BD0174A90428D
:1024E00008D0174A904205D0164A904202D0164AA8
:1024F000904203D1154A1340CA6813438022934384
:102500004A69134303608B68C3620B6883620A4B9A
:1025100098420DD00B4B98420AD00B4B984207D0F3
:10252000012343617047702293434A681343D2E703
:102530000B690363F4E7C046002C0140000400402F
:10254000002000400044014000480140FFFCFFFF24
:1025500070B5041E14D03D23C35C002B0AD03D256A
:1025600002236355211D2068FFF7AEFF0123635549
:10257000002070BD00223C33C25400F08DFDEEE718
:102580000120F6E77047704710B5040083680269C0
:10259000134342691343C269134301680A686548DB
:1025A000024013430B602268536863490B40E168A3
:1025B0000B435360A369226A134321688A685F480A
:1025C000024013438B605E4B1A6B03231340012BB5
:1025D00024D0002B05D0022B22D0032B22D0102395
:1025E00000E0002380221202E16991421CD0022BFC
:1025F00000D17FE066D9042B00D187E0082B00D002
:1026000090E06368580880231B029C466044616820
:10261000FDF786FD03041B0C002060E00423E1E7C6
:102620000823DFE70223DDE7022B2FD010D9042B8C
:1026300038D0082B43D16368580880235B029C463E
:1026400060446168FDF76CFD03041B0C00200DE085
:10265000002B34D1FFF794FD400063685B08C0187D
:102660006168FDF75DFD03041B0C002035491A006D
:10267000103A8A4259D80F22190091430A005B0888
:1026800007210B4013432268D3602FE0636858088A
:102690002D4B9C4660446168FDF742FD03041B0C12
:1026A0000020E3E7FFF798FC400063685B08C01870
:1026B0006168FDF735FD03041B0C0020D6E70120FF
:1026C0000023D3E7002B2DD1FFF75AFD63685B0889
:1026D000C0186168FDF724FD03041B0C0020194994
:1026E0001A00103A8A4222D82268D3600023236657
:1026F000636610BD63685808144B9C46604461686B
:10270000FDF70EFD03041B0C0020E8E7FFF764FC57
:1027100063685B08C0186168FDF702FD03041B0CC9
:102720000020DCE701200023D9E70120DEE70120BB
:10273000DCE7C046F369FFFFFFCFFFFFFFF4FFFFB9
:1027400000100240EFFF00000024F40000127A00A5
:10275000436ADB0706D5026853682C490B40816A3F
:102760000B435360436A9B0706D5026853682849A8
:102770000B40C16A0B435360436A5B0706D502688E
:10278000536824490B40016B0B435360436A1B079A
:1027900006D50268536820490B40416B0B435360D8
:1027A000436ADB0606D5026893681C490B40816BBF
:1027B0000B439360436A9B0606D5026893681849E9
:1027C0000B40C16B0B439360436A5B060BD50268F9
:1027D000536814490B40016C0B43536080235B0327
:1027E000026C9A420AD0436A1B0606D502685368F7
:1027F0000D490B40816C0B4353607047026853686E
:102800000A490B40416C0B435360ECE7FFFFFDFFAF
:10281000FFFFFEFFFFFFFBFFFF7FFFFFFFEFFFFF5D
:10282000FFDFFFFFFFFFEFFFFFFFF7FFFFFF9FFF50
:10283000F0B5C64600B504000F0016009846069D88
:102840002368DB693A009A4313005A425341B3426A
:102850003AD16B1CF4D0FEF745FD4346C01A8542C1
:102860001FD3002D1DD023681A685207E8D5DA69F6
:102870001205E5D5802212011A62226813681449F4
:102880000B40136022689368A331FF318B43936040
:1028900020236367A367E36700225033E2540320D9
:1028A00013E0226813680A490B401360226893689A
:1028B000A331FF318B43936020236367A36700221A
:1028C0005033E254032000E0002004BC9046F0BDE9
:1028D0005FFEFFFF30B583B004000023C367FEF73F
:1028E00001FD050023681B681B070CD423681B68C7
:1028F0005B0715D420236367A36700225033E2549B
:10290000002003B030BD0D4B009303000022802156
:1029100089032000FFF78CFF0028E7D00320F0E7B1
:10292000064B00932B0000228021C9032000FFF7F3
:102930007FFF0028DED00320E3E7C046FFFFFF0152
:1029400010B5041E2ED0436F002B21D024236367C3
:102950002268136801218B4313602000FFF714FEE7
:10296000012814D0636A002B18D1226853680E49DD
:102970000B4053602268936808218B439360226860
:10298000136807390B4313602000FFF7A3FF10BD46
:1029900000227033C25400F0B7FBD7E72000FFF7E6
:1029A000D7FEE2E70120F2E7FFF7FFFFF0B589B0BD
:1029B0001422002103A800F0E1FC1F4B596980207C
:1029C0008002014359615A6902400192019A5A6991
:1029D0008021C9020A435A615B690B400293029B42
:1029E0009025ED050022D0212800FFF79EF8134E18
:1029F000002202213000FFF798F8282303930024D7
:102A00000494059403A92800FEF7C2FFD023039382
:102A1000012704970594069403A92800FEF7B8FF40
:102A20000223039304970594069403A93000FEF74C
:102A3000AFFF09B0F0BDC0460010024000040048DE
:102A400010B584B00C22002101A800F097FC144CB2
:102A5000144B236000236360A360E36001222261C2
:102A60000421616123766376A376E376C221FF3188
:102A7000E16123629E39FF396354A2622000FEF7B0
:102A800015FD0223019380235B01029380235B05E4
:102A9000039301A92000FEF789FE04B010BDC046D3
:102AA000F40000200024014010B50948094B0360E0
:102AB00096239B01436000238360C36003610C2263
:102AC00042618361C36103624362FFF739FF10BD56
:102AD000340000200038014010B50748074B036060
:102AE000074B436000238360064AC2600361436171
:102AF0008361FFF72DFD10BD34010020004401402B
:102B00003F1F0000E703000010B50748074B0360B4
:102B1000074B436000238360064AC2600361836100
:102B2000FFF716FD10BDC046B40000200020004095
:102B30003F1F0000E703000010B520219020C005D2
:102B4000FEF7ECFF012813D000240C4A2300333B8E
:102B500093420FD90A4B9C420ED9022010BD01347A
:102B600020219020C005FEF7D9FF0128F7D0ECE71F
:102B70000024F5E70120F1E70020EFE74C1A0600FA
:102B8000C027090010B508219020C005FEF7C6FF38
:102B9000012807D0002240219020C005FEF7C5FF84
:102BA000002010BDFEF7A4FB9024E4050122402183
:102BB0002000FEF7BAFF1920FEF79AFB082120003B
:102BC000FEF7ACFF012801D00020EAE701224021F6
:102BD0002000FEF7AAFF0120E3E710B5012806D088
:102BE000002210219020C005FEF79FFF10BD01229A
:102BF00010219020C005FEF798FFF7E710B580215F
:102C00009020C005FEF797FF10BD30B595B030227B
:102C1000002108A800F0B2FB10241022002104A813
:102C200000F0ACFB10220021684600F0A7FB122345
:102C3000089301250B950D950C940E9408A8FEF7AA
:102C400083FF07230493002405940694079400212E
:102C500004A8FFF7F7F9009502946846FFF7A0FA79
:102C600015B030BDF0B5DE4657464E464546E0B598
:102C700087B0FEF71BFBFFF7C8FFFFF797FEFFF7D4
:102C8000DFFEFFF711FFFFF727FFFFF73DFF0022F1
:102C9000CF4B1A6000230393984600269A46994624
:102CA000002400930193002735E0009D0126012BAD
:102CB00040D0019B012B7ED06B1E5A425341624291
:102CC00062411A4200D08BE00095012F00D19CE0B8
:102CD0005346013B5A425341614261417242724143
:102CE000D2B2194214D0002A12D0B94B1A6800236C
:102CF000B84991425B41424651424A411A4200D092
:102D0000DBE0B34B1A689623DB009A4200D9E0E07F
:102D1000012F00D1F2E0FFF70FFF0500FFF732FFB0
:102D200003000290002DC2D0012DC0D0022DBCD0D6
:102D3000009DBCE76B1E5A425341624262411A42F7
:102D400023D10095A24B1B6899459B415B42621EB3
:102D500051424A411A4228D1012CB6D1012EB4D198
:102D60000020FFF73AFF002280219020C005FEF7E7
:102D7000DCFE994C2000FFF7B1FA2000FFF7DAFAE9
:102D800000260024002301939FE70120FFF725FF81
:102D9000914C2000FFF790FA2000FFF7B9FA029B50
:102DA0001C00019300230093CCE7FFF727FF884B1B
:102DB0001B689946D0E70020FFF70FFF0022802113
:102DC0009020C005FEF7B1FE834C2000FFF786FA85
:102DD0002000FFF7AFFA009500240023019374E769
:102DE0000120FFF7FAFE7C4C2000FFF765FA200077
:102DF000FFF78EFA2000FFF75FFA2000FFF788FA4E
:102E0000019B0093012401275FE7651E6B425D4132
:102E1000EDB26F4B1B6899459B415B422B4234D10D
:102E20006B4B1A686D4B93429B415B422B4232D1F4
:102E3000012E00D04CE70020FFF7CFFE9024E405E0
:102E4000012240212000FEF770FEFA20C000FEF7AC
:102E50004FFA002240212000FEF767FE0022802169
:102E60002000FEF762FE0022594B1A605A4C2000E7
:102E7000FFF734FA2000FFF75DFA002600239A4698
:102E8000994600240093002722E7FFF7B7FE504B36
:102E90001B689946C4E70020FFF79FFE00224C4BB9
:102EA0001A6080219020C005FEF73FFEBA4600233D
:102EB0009946002400930027BAE701228021902040
:102EC000C005FEF732FE0022414B1A6001239846EE
:102ED00017E7002280219020C005FEF726FE002281
:102EE0003B4B1A603C4D2800FFF7F8F92800FFF72C
:102EF00021FA002398469A46009309E7384D2800A6
:102F0000FEF79CFB64212800FEF7EAFB2800FEF791
:102F100049FC344B9B4618602800FEF7BFFB5B461C
:102F20001868FDF74FFC3049FDF70CFB2F49FDF702
:102F3000C1F90590059B05982D49FDF7BBF92D4971
:102F4000FDF700FB2C49FDF7FDFAFEF791F8002292
:102F50002A4BFDF77DFC00F055F9FEF7DBF8FDF795
:102F600011FC80B204AB588002331B889BB2244A08
:102F7000934225D83B00013B5A425341039A5142A8
:102F80004A411A4201D0012C1DD004AB02331B88E8
:102F90009BB21C4A934219D93B00012B00D0BAE6E0
:102FA000012C00D0B7E60022094B1A608021902046
:102FB000C005FEF7BAFD0194002300930027AAE69E
:102FC00000230393D7E703942600DEE70023E4E71A
:102FD00030000020AF04000034010020DC050000B8
:102FE000F400002028000020D7A3504000A0704526
:102FF0000060864500C896460000C8420000E03FD9
:10300000E70300000A05000082B00A4B996901221B
:103010001143996199690A400092009ADA69802106
:1030200049050A43DA61DB690B400193019B02B059
:103030007047C0460010024010B588B0040014224A
:10304000002103A800F09AF92268114B9A4201D09E
:1030500008B010BD0F4B9969802080000143996131
:103060009A6902400192019A5A69802189020A43B1
:103070005A615B690B400293029B04230393013B5B
:10308000049303A99020C005FEF782FCE0E7C04648
:10309000002401400010024000B583B00368174AC5
:1030A000934204D0164A934214D003B000BD154A8F
:1030B000D169802040000143D161D369034000936E
:1030C000009B00220021ED38FEF70AFC1320FEF7DA
:1030D00037FCEAE70B4A9169802080020143916145
:1030E000936903400193019B002200211520FEF704
:1030F000F7FB1520FEF724FCD7E7C0460020004070
:10310000004401400010024010B588B004001422B1
:10311000002103A800F032F92268134B9A4201D033
:1031200008B010BD114B99698020C001014399611D
:103130009A6902400192019A5A69802189020A43E0
:103140005A615B690B400293029BC023DB0003932F
:103150000223049301330693023B079303A99020B3
:10316000C005FEF715FCDBE7003801400010024007
:103170007047FEE77047704710B5FEF7A7F810BD1F
:1031800010B50248FFF7F3F810BDC046B4000020A8
:1031900010B50448FFF7EBF8034A136801331360D6
:1031A00010BDC046340100203000002070470000F0
:1031B0000D4885460D480E490E4A002302E0D458BA
:1031C000C4500433C4188C42F9D30B4A0B4C00236F
:1031D00001E013600432A242FBD3FFF7E7FF00F0E7
:1031E000A9F8FFF73FFDFEE70010002000000020D7
:1031F0000C000020A43400080C0000207401002002
:10320000FEE70000454AF8B5574692464B005B0D75
:103210009A444E464546DE465246E0B50C0005004F
:103220000E0089460700132A22DC002A47DB52469B
:103230003B4B134198460B0042461340034311D0C9
:10324000384A394BFDF704FB00220023FDF71EF836
:10325000002805D0002C41DB4E46434600279E4304
:10326000380031003CBC90469946A246AB46F8BDBA
:103270005246332A08DD8023DB009A45F2D1020052
:103280000B00FDF7E5FAEDE7284A94460122634476
:103290005242DA4093460242E4D0224A224BFDF7E2
:1032A000D7FA00220023FCF7F1FF0028D8D0002C29
:1032B0001ADB5B464E469F4338003100D2E7194A7D
:1032C000194BFDF7C5FA00220023FCF7DFFF0028A9
:1032D000C6D0002C16DB00270026C1E7802352460B
:1032E0005B0313419944B7E75346142B12D03423A0
:1032F000524601279B1A9F407F19AF429B415B4278
:103300009944D6E76400640825430027002DA7D020
:10331000074EA5E7133B9C46E144CAE701FCFFFFCB
:10332000FFFF0F009C7500883CE4377EEDFBFFFF3C
:103330000000F0BF70B500260C4D0D4C641BA410AE
:10334000A64209D1002600F021F80A4D0A4C641B60
:10335000A410A64205D170BDB300EB5898470136C2
:10336000EEE7B300EB5898470136F2E79C340008CB
:103370009C3400089C340008A03400080300821824
:10338000934200D1704719700133F9E7F8B5C04690
:10339000F8BC08BC9E467047F8B5C046F8BC08BCEF
:0433A0009E4670478E
:1033A40002030405060708090A0B0C0D0E0F101082
:1033B4000102030405060708090A0B0C0D0E0F1081
:1033C40000000000000000000102030406070809D1
:1033D4000000000001020304400400081004000877
:1033E40022040008640300082204000806040008FC
:1033F40022040008640300081004000810040008F4
:1034040006040008640300086C0300086C03000849
:103414006C030008280400081004000810040008C5
:10342400E4030008C8040008E403000806040008D4
:10343400E4030008C804000810040008100400088D
:1034440006040008C80400086C0300086C030008A4
:103454006C030008D204000870060008C0050008C8
:10346400C0050008BE0500086206000862060008E0
:1034740058060008BE050008620600085806000841
:1034840062060008BE050008680600086806000811
:0834940068060008F8060008B4
:04349C00E90000083B
:0434A000C10000085F
:0C34A400010000000400000000127A008B
:04000005080031B10D
:00000001FF
